:020000040800F2
:100000009010002045010008A32400089B2400084C
:100010009F240008F90A00081D5200080000000093
:10002000000000000000000000000000252A000879
:10003000290B000800000000F9290008114B0008F6
:100040005F0100085F0100085F0100085F01000810
:100050005F0100085F0100085F0100085F01000800
:100060005F0100085F0100085F0100085F010008F0
:100070005F0100085F0100085F0100085F010008E0
:100080005F0100085F0100085F0100085F010008D0
:100090005F0100085F0100085F010008CD0E000845
:1000A0005F0100085F0100085F0100085F010008B0
:1000B0001D4B0008314B0008334B00085F0100085E
:1000C0005F0100085F0100085F0100085F01000890
:1000D0005F010008DD510008ED5100080D520008D5
:1000E000C50E00085F0100085F0100085F010008FD
:1000F0005F0100085F0100085F0100085F01000860
:100100005F0100085F010008354B00085F0100082F
:10011000994F00089B4F0008374B0008394B0008E7
:100120005F0100085F0100085F0100085F0100082F
:10013000DFF80CD000F07CFC004800472165000887
:10014000901000200648804706480047FEE7FEE77B
:10015000FEE7FEE7FEE7FEE7FEE7FEE7FEE7FEE777
:10016000194B000831010008202A04DB203A21FA4B
:1001700002F00021704721FA02F3D040C2F12002C0
:10018000914008431946704740EA01039B0703D09A
:1001900009E008C9121F08C0042AFAD203E011F8C6
:1001A000013B00F8013B521EF9D27047D2B201E088
:1001B00000F8012B491EFBD270470022F6E710B56C
:1001C00013460A4604461946FFF7F0FF204610BDC5
:1001D00010B5002200E0521C835C8C5CA34201D16C
:1001E000002BF8D1D8B2E1B2401A10BD10B5484387
:1001F000044606F09FF9002805D00021002C02D00B
:10020000641E0155FAE710BDF0B480EA0102D40F74
:100210004200B2EB410F02D20246084611464A00A4
:1002200042D0C30DDDB2C1F3C752AD1A202D35DA6D
:10023000C1F3160141F4000204B15242C5F1200697
:1002400002FA06F12A411044B3EBD05F23D0C4B1C7
:10025000012DA0EBC35009DCF0BC4FF0004202EAD4
:10026000C352DBB200F5000000F03FBB400000F1DC
:10027000807000EBC350A0F1807040EAD17049005B
:1002800009E0490841EAC071A0EBC35000F5000045
:10029000400800EBC350F0BC00F01EBB61420122DD
:1002A00002EB4101001BF6E7F0BC704781F0004112
:1002B000AAE780F00040A7E780EA010210B502F04B
:1002C0000043400022D04A001FD0010E01EB126112
:1002D000C0F35600C2F3560240F4000042F400029C
:1002E000A0FB022000047F39140400D0401C50EA17
:1002F000124001D44000491EC2B20C0604EBD010DB
:10030000401C4008802A02D003E0002010BD20F0ED
:100310000100002900DA0020184310BD30B480EA43
:10032000010202F0004530F0004221F0004013D0FD
:1003300090B1C30DD40DC2F31601C0F31600E41A38
:1003400041F4000140F400027D34914201D3641C69
:1003500000E04900002C02DA30BC002070474FF466
:1003600000000023914201D3891A034340084FEA59
:100370004101F7D151B1914202D14FF0004105E066
:1003800002D24FF0010101E06FF0010103EBC45014
:10039000284430BC00F0A0BA2DE9FE4F804681EA27
:1003A0000300C00F0C46009021F0004123F00045EF
:1003B000B8EB0200A94105D24046214690461C46B2
:1003C0000B46024623F00040104347D0270DC7F3E9
:1003D0000A00C3F30A510290401A019040286BDAD8
:1003E000C3F3130040F4801B0098924620B1002311
:1003F000D2EB030A63EB0B0B01985946C0F14002A4
:10040000504600F048FA06460D4650465946019AB5
:1004100000F050FA10EB08006141002487EA115205
:1004200084EAE7731A4340D0009A62B3019A012A22
:100430004FEA075215DC001B61EB02014FF000424E
:1004400002EA0752CDE90042001C41F58011324614
:100450002B4600F087FA03B0BDE8F08F40462146F6
:10046000F9E7001B61EB0201001C41F58013001845
:100470005B412018A2F5001747EB030140EAD57055
:10048000B6196D4111E06D084FEA360645EAC075B0
:100490004FEA0752001B61EB0201001C41F580117D
:1004A00049084FEA30000019514132462B4603B04B
:1004B000BDE8F04F00F047BA009801224000002349
:1004C000D0EB020263EBE073009821464FEAE07440
:1004D000B8EB000061EB0401E9E783F000435BE760
:1004E00081F0004158E72DE9FE4F81EA030404F052
:1004F000004421F0004100944FF0000B23F0004332
:1005000050EA01045ED052EA03045BD0C3F30A54FC
:10051000C1F30A552C44A4F2F3340194A0FB025415
:10052000C1F3130141F48011C3F3130343F48013A7
:1005300001FB024400FB034E840A970A44EA8154FB
:1005400047EA8357A4FB076802958D0A05FB0785D8
:100550004FEA932C04FB0C542705029D4FEA0658E2
:1005600047EA1637B5EB08056EEB070C870E920EBF
:1005700047EA811742EA8312A7FB0201B6EB0B019F
:1005800064EB00042B0D43EA0C335E1844EB1C5063
:10059000DA465146E7FB0201C5F313044FEA0B3379
:1005A00043EA14534FEA0432019C43EA0603A4F1E0
:1005B0000C040294009CCDE900B400F0D3F903B020
:1005C000BDE8F08F00200146F9E72DE9F04D81EA02
:1005D000030404F0004B21F0004514464FF0000ADC
:1005E00023F0004150EA050220D054EA01021DD058
:1005F000C5F30A570246C5F31303C1F31300C1F351
:100600000A5640F4801543F48013A7EB0608101B2C
:10061000D64608F2FD3873EB050002D308F1010855
:1006200001E092185B41B8F1000F03DA00200146A7
:10063000BDE8F08D00204FF48011064684460EE0A0
:10064000171B73EB050705D3121B63EB050306436A
:100650004CEA010C49084FEA300092185B4150EA1D
:100660000107EDD152EA030012D082EA040083EAC6
:100670000501084305D0101BAB4106D2012200231F
:1006800006E000224FF0004302E06FF00102531039
:100690001AEB06004CEB085110EB0A0041EB0B0182
:1006A000BDE8F04D00F04FB9C10F80EAE07008449A
:1006B000CA079623002100F018B99623002211469C
:1006C00000F013B900F0004220F00040C10DC0F36B
:1006D000160040F400007F2901DA002070479629B7
:1006E00003DCC1F19601C84001E096398840002A38
:1006F000F4D04042704720F00040C10DC0F3160016
:1007000040F400007F2901DA00207047962903DCBD
:10071000C1F19601C8407047963988407047C1F3CF
:100720000A5210B5C1F3130140F2FF3341F48011B6
:100730009A4201DA002010BD40F233439A42A2F2FD
:10074000334203DC5242FFF70FFD10BD904010BD55
:1007500000F0004230F000400AD0C10D01F5607198
:10076000C0F3160042EA0151C20840071143704726
:10077000002001467047000030B5041E71F10004EE
:1007800004DB4FF00044404264EB0101141E73F19E
:10079000000405DB1C464FF00043524263EB0403A8
:1007A000994208BF904230BD01F0004330B421F0BF
:1007B000004150EA010206D00A0DA2F56072C1F3B1
:1007C0001301002A02DC30BC00207047440F44EAC9
:1007D000C104C100E01830BC00EBC25000F07CB88E
:1007E000002801DBC0F10040002901DBC1F100411C
:1007F00081427047002801DBC0F10040002901DB85
:10080000C1F100418842704730B50B4601460020D7
:100810002022012409E021FA02F59D4205D303FAC2
:1008200002F5491B04FA02F52844151EA2F1010243
:10083000F1DC30BD2DE9F05F0546002092469B4675
:1008400088460646814640241BE0284641464746E6
:100850002246FFF789FC53465A46C01A914110D3ED
:1008600011461846224600F016F82D1A67EB0108CB
:100870004F4622460120002100F00DF817EB000939
:100880004E41201EA4F10104DFDC484631462A46D1
:100890004346BDE8F09F202A04DB203A00FA02F12B
:1008A000002070479140C2F1200320FA03F319435E
:1008B00090407047202A06DBCB17203A41FA02F01D
:1008C00043EAE07306E041FA02F3D040C2F12002AD
:1008D00091400843194670470029A8BF7047401C43
:1008E000490008BF20F00100704710B4B0FA80FC46
:1008F00000FA0CF050EA010404BF10BC704749B183
:10090000CCF1200421FA04F411FA0CF118BF0121F2
:1009100021430843A3EB0C01CB1D4FEA00614FEAD2
:10092000102042BF002010BC704700EBC3501044A1
:100930000029A4BF10BC7047401C490008BF20F02C
:10094000010010BC704710B5141E73F1000408DAE2
:10095000401C41F1000192185B411A4301D120F083
:10096000010010BD2DE9F04D92469B4611B1B1FA40
:1009700081F202E0B0FA80F220329046FFF78BFF5E
:1009800004460F4640EA0A0041EA0B0153465A4624
:10099000084313D0114653EA010019D0C8F14002B0
:1009A0005046FFF7E1FB05460E4650465946424683
:1009B000FFF771FF084305D0012004E020463946C7
:1009C000BDE8F08D0020054346EAE0762C4337432E
:1009D0000A986305E40AA0EB08000022FD0A44EA35
:1009E00047540A3002D500200146E9E701051019F5
:1009F0006941DDE9084500196941BDE8F04DA2E70C
:100A0000C1F30A52C1F3130140F2FF3341F48011E4
:100A10009A4202DA00200146704740F233439A427C
:100A2000A2F2334202DC5242FFF79EBBFFF733BF14
:100A3000064C074D06E0E06840F0010394E807002B
:100A400098471034AC42F6D3FFF776FBFC680008F9
:100A50001C69000870B58C1810F8015B15F00703CD
:100A600001D110F8013B2A1106D110F8012B03E047
:100A700010F8016B01F8016B5B1EF9D12B0705D44F
:100A80000023521E0DD401F8013BFAE710F8013B98
:100A9000CB1A921C03E013F8015B01F8015B521EB4
:100AA000F9D5A142D8D3002070BD000070B504462E
:100AB0000D4629462046FFF7F9FB064604E00B49A0
:100AC0003046FFF7F3FB064609493046FFF792FE32
:100AD000F5D304E005493046FFF796FB0646054985
:100AE0003046FFF77DFEF5D3304670BD0000B443BD
:100AF00000003443000034C300BFFEE730B590F877
:100B000040500124AC40C56B6C600468636044686D
:100B1000102C04D10468A2600468E16003E004685A
:100B2000A1600468E26030BD704770B504460D46B0
:100B300004B105B970BD25600020A08000212046C9
:100B400000F002F800BFF5E770B504460D460CB1A1
:100B5000206800B970BD5A2D00DD5A2515F15A0FD5
:100B600001DA6FF059054FF4FA606843B42190FB45
:100B7000F1F000F2DC5086B23146206800F08EF8C9
:100B8000A58000BFE6E710B50446204600F062FAF3
:100B900010BD000070B505460E4600242BE004EBA6
:100BA000440105EBC10001F063FF04EB440105EBD8
:100BB000C10002F03EF804EB440005EBC0004068C1
:100BC0000E4988420FD004EB440005EBC00040689A
:100BD0000B49884207D004EB440005EBC000406895
:100BE0000849884205D104EB440105EBC10001F03E
:100BF000A7FF601CC4B2B442D1DB70BD000021105D
:100C0000000011100000311070B504460D4604A01C
:100C100004F04CFB2A46214606A004F047FB70BDB9
:100C20002D3E48617070656E204572726F72212191
:100C3000210D0A002D3E4572726F72205061726163
:100C40006D65746572732056616C75653A206669CE
:100C50006C65202573206F6E206C696E652025649D
:100C60000D0A000010B500F0DFFB01F05CF810BDCC
:100C700010B500F0E5FB01F0E3FF10BD10B5044630
:100C8000204600F0C9FB10BD10B50446204602F016
:100C90000BF8204600F098FB10BD000070B504462C
:100CA0000D46606E32281CD194F86C0030B10428D7
:100CB00007D0082808D00C280CD108E0206845632C
:100CC0000EE0206885630BE02068C56308E02068BB
:100CD000056405E04FF4087102A0FFF795FF00BF1F
:100CE00000BF70BD2E2E5C4472697665725C5372D3
:100CF000635C6472765F68616C5F70776D2E630011
:100D000070B505460E4618210020FFF76FFA12490C
:100D10000860002419E004EB041105EBC10002F0A7
:100D20009FFA04EB041105EBC10002F005F904EB96
:100D3000041105EBC10002F079F904EB041105EB95
:100D4000C10003F051F8601CC4B2B442E3DB0248B6
:100D5000006804F08DFF70BD3009002010B5044616
:100D6000204601F01BF810BD10B50446204601F0E6
:100D70005EF810BD10B50446204603F091F82046F9
:100D800003F096F9204603F047FA10BD10B504466B
:100D900003F060FA204603F019FD204603F0F2FA52
:100DA000204603F061FB204603F0BEFA204603F024
:100DB00053FA204603F0E2FB204603F093FC204662
:100DC00003F0E8FC94F8C900012819D100BF04F130
:100DD00084006063A820045100BFDE21085B05F099
:100DE000A9FBE02108512068C06840F0100021688C
:100DF000C860DE20025BE0200159204601F080FA45
:100E000094F8C80001280BD100BF04F14000206312
:100E1000646600BFEA21085B05F08CFBEC210851F9
:100E200010BD38B5044620680068C0F30010C8B192
:100E300000BF002000902068006800902068406893
:100E4000009000BF00BF204601F0ECF9DE20005BFF
:100E5000616B09684968401A81B2DC2001530121A5
:100E6000E520015500BFDE20025BE020015920464D
:100E700001F046FA0028F6D138BD70B504460E469A
:100E8000E520005D012801D0002070BDDC20055B5D
:100E9000691C3046FFF791F9E02001592A46304697
:100EA000FFF772F90021E52001552846EDE770B5FE
:100EB00004460D461646FF2332462946204601F0D9
:100EC00083FA70BD10B503F075FF10BD10B503F0C7
:100ED00072FF10BD0146002291F82100022808D0BF
:100EE0000420886300BF002081F8200000BF01209B
:100EF00070470868006820F00E000B6818600868EA
:100F0000006820F001000B68186091F84030012063
:100F10009840CB6B5860012081F8210000BF002071
:100F200081F8200000BF1046E2E7000001460022E1
:100F300009B9012070471E4B086898420BD21D4B1F
:100F40000868C01A1423B0FBF3F080000864194845
:100F50000838C8630AE0164B0868C01A1423B0FBAF
:100F6000F3F08000086412480838C863022081F852
:100F700021000868026843F6F0708243D1E901035A
:100F80001843CB6818430B6918434B6918438B69A6
:100F90001843CB6918430243086802600020886345
:100FA000012081F82100002081F8200000BFC1E766
:100FB00008040240080002402DE9F04104460D46B5
:100FC00016461F464FF0000800BF94F82000012885
:100FD00002D10220BDE8F081012084F8200000BF8A
:100FE00094F8210001282CD1022084F8210000204F
:100FF000A0632068006820F00100216808603B467B
:10100000324629462046FFF779FDE06A30B1206874
:10101000006840F00E00216808600BE0206800685E
:1010200020F00400216808602068006840F00A0091
:10103000216808602068006840F0010021680860AD
:1010400006E000BF002084F8200000BF4FF0020837
:101050004046BFE770B5044600F0B0F906462546A5
:10106000681C10B104480078054400BF00F0A6F9E0
:10107000801BA842FAD370BD3C0900202DE9F84737
:10108000024600239C467BE14FF0010808FA03F476
:10109000D1F8008008EA0400A0427DD1DFF8F4A274
:1010A000D1F80480A8EB0A09D0453AD014DCB8F195
:1010B000030F50D009DCB8F1000F31D0B8F1010FA7
:1010C0001CD0B8F1020F49D120E0B8F1110F18D0AF
:1010D000B8F1120F42D11EE0B9F5881F25D006DC09
:1010E000B9F5803F20D0B9F5801F37D11AE0B9F5A6
:1010F000001F18D0B9F5041F30D117E0D1F80CC08B
:101100002DE0D1F80C8008F1040C28E0D1F80C8017
:1011100008F1080C23E0D1F80C8008F10C0C1EE05B
:1011200000BF00BF00BF00BF00BF00BFD1F80880F4
:10113000B8F1000F02D14FF0040C0BE0D1F8088099
:10114000B8F1010F03D14FF0080C146102E04FF029
:10115000080C546103E04FF0000C00E000BF00BF3A
:10116000FF2801D8904601E002F104084646FF2816
:1011700002D84FEA830803E0A3F108084FEA880881
:101180004746D6F800804FF00F0909FA07F928EA18
:1011900009080CFA07F900E07AE048EA0908C6F8FD
:1011A0000080D1F8048008F08058B8F1805F6FD1DA
:1011B00000BFDFF8E481D8F8188048F00108DFF8B4
:1011C000D891C9F81880C846D8F8188008F00108E6
:1011D000CDF8008000BF00BF4FEAB9384FEA93094D
:1011E00058F829504FEA83784FEA18794FF00F08E2
:1011F00008FA09F825EA0805DFF8A081424502D17E
:101200004FF0000824E0DFF89881424502D14FF00A
:1012100001081DE0DFF88C81424502D14FF0020841
:1012200016E0DFF88481424502D14FF003080FE059
:10123000DFF87881424502D14FF0040808E0DFF87A
:101240007081424502D14FF0050801E04FF00608D9
:101250004FEA83794FEA197908FA09F848EA05054F
:10126000DFF850814FEA930948F82950D1F80480FB
:1012700008F48038B8F5803F0BD1DFF83C81D8F80E
:10128000008048EA0008DFF83091C9F800800AE0E1
:1012900075E0DFF82481D8F8008028EA0008DFF83C
:1012A0001891C9F80080D1F8048008F40038B8F526
:1012B000003F0ED1DFF8008108F10408D8F8008063
:1012C00048EA0008DFF8F09009F10409C9F8008045
:1012D0000DE0DFF8E48008F10408D8F8008028EA7F
:1012E0000008DFF8D49009F10409C9F80080D1F8AA
:1012F000048008F48018B8F5801F0ED1DFF8B8809C
:1013000008F10808D8F8008048EA0008DFF8A8903B
:1013100009F10809C9F800800DE0DFF89C8008F1A8
:101320000808D8F8008028EA0008DFF88C9009F156
:101330000809C9F80080D1F8048008F40018B8F54D
:10134000001F0ED1DFF8708008F10C08D8F800807B
:1013500048EA0008DFF8609009F10C09C9F800803C
:101360000DE0DFF8548008F10C08D8F8008028EA76
:101370000008DFF8449009F10C09C9F800805B1CF3
:10138000D1F8008028FA03F8B8F1000F7FF47CAEA2
:10139000BDE8F8870000111000100240000801406D
:1013A000000C0140001001400014014000180140F1
:1013B000001C014008000140000401400148006891
:1013C000704700003409002070B504460CB90120B4
:1013D00070BD4CF6CC402168086045F2555021683C
:1013E0000860D4E9001048602168A0688860FFF7B1
:1013F000E5FF054606E0FFF7E1FF401B262801D97F
:101400000320E5E72068C0680028F4D14AF6AA2046
:10141000216808600020DBE701464AF6AA200A6836
:1014200010600020704700000348006803490978F5
:101430000844014908607047340900203C09002035
:1014400010B50848006840F0100006490860032005
:1014500000F0D2F8002000F007F800F02BF8002090
:1014600010BD00000020024070B504460E48007810
:101470004FF47A71B1FBF0F00C490968B1FBF0F55B
:10148000284600F036FC08B1012070BD102C07D2B0
:1014900000222146501E00F071F80548046001E06A
:1014A0000120F2E70020F0E73C090020400900207D
:1014B0003809002008B5032000F09EF800BF254839
:1014C000806940F00100234988610846806900F086
:1014D0000100009000BF00BF00BF0846C06940F097
:1014E0008050C8610846C06900F08050009000BF7D
:1014F00000BF002211466FF00B0000F03FF8002201
:1015000011466FF00A0000F039F8002211466FF022
:10151000090000F033F800221146501F00F02EF8A9
:1015200000221146101F00F029F800220F21901E02
:1015300000F024F800220F21501E00F01FF800BF19
:101540000549486820F0E06040F00070486000BF46
:1015500008BD00000010024000000140014608469E
:10156000002809DB00F01F0301229A4043099B0079
:1015700003F1E023C3F8002100BF70472DE9F05FBD
:1015800080460D461646002703F0A0FE0746394662
:101590002A46334601F00700C0F1070ABAF1040FEA
:1015A00002D94FF0040A01E0C0F1070AD14600F168
:1015B000040ABAF1070F02D24FF0000A01E0A0F1CD
:1015C000030AD4464FF0010A0AFA09FAAAF1010AFD
:1015D0000AEA020A0AFA0CFA4FF0010B0BFA0CFBAA
:1015E000ABF1010B0BEA030B4AEA0B042146404620
:1015F00003F074FEBDE8F09F00BF00F00702064B49
:1016000019684FF6FF031940044B0B4343EA0221CC
:10161000014B196000BF70470CED00E00000FA05B7
:1016200070B504460D460CB9012070BD5A480068DB
:1016300000F00700A8420ED25748006820F00700CB
:101640002843554908600846006800F00700A84292
:1016500001D00120E9E7207800F0020002281DD126
:10166000207800F00400042805D14C48406840F47C
:10167000E0604A494860207800F00800082805D159
:101680004648406840F460504449486043484068D8
:1016900020F0F000A168084340494860207800F03D
:1016A000010078B36068012806D13C48006800F466
:1016B000003090B90120B8E76068022806D13748A9
:1016C000006800F0007040B90120AEE733480068C0
:1016D00000F0020008B90120A7E73048406820F078
:1016E0000300616808432D494860FFF767FE06461E
:1016F00009E0FFF763FE801B41F28831884202D97E
:10170000032092E707E02548406800F00C0061687C
:10171000B0EB810FEDD12048006800F00700A8422F
:101720000ED91D48006820F0070028431A490860B8
:101730000846006800F00700A84201D0012074E7C5
:10174000207800F00400042807D11448406820F4F1
:10175000E060E168084311494860207800F0080023
:10176000082808D10D48406820F46050216940EAFB
:10177000C1000A49486000F03FF808494968C1F3D0
:101780000311074A515CC8400649086006480068D2
:10179000FFF76AFE002048E70020024000100240E8
:1017A000E36800084009002038090020014800686B
:1017B000704700004009002000B5FFF7F7FF04491B
:1017C0004968C1F30221034A515CC84000BD0000D2
:1017D00000100240F368000800B5FFF7E7FF044976
:1017E0004968C1F3C221034A515CC84000BD0000F2
:1017F00000100240F3680008F0B585B00FF26C0CE1
:101800009CE8E01001A8A0E8E0101CA52D68009558
:1018100000210022002300240020194D696801F0F6
:101820000C05F5B1042D02D0082D19D101E01548A1
:1018300019E001ADC1F38346AC5D01F4803555B1CB
:101840000F4D6D68C5F340451DF805200D4D6543EE
:10185000B5FBF2F302E00C4D04FB05F3184602E081
:1018600000BF084800BF00BF05B0F0BD020304057B
:10187000060708090A0B0C0D0E0F101001020000DC
:101880000010024000127A0000093D00F8B504463D
:101890000CB90120F8BD207800F00100002878D0B4
:1018A000F848406800F00C0004280CD0F548406867
:1018B00000F00C00082811D1F248406800F4803094
:1018C000B0F5803F0AD1EF48006800F400300028EE
:1018D0005FD0606800285CD10120DBE700BF606852
:1018E000B0F5803F06D1E748006840F48030E54914
:1018F000086028E0606858B9E248006820F4803049
:10190000E04908600846006820F4802008601AE07A
:101910006068B0F5A02F0BD1DA48006840F4802051
:10192000D84908600846006840F4803008600AE042
:10193000D448006820F48030D24908600846006826
:1019400020F48020086000BF606888B1FFF736FD92
:10195000054606E0FFF732FD401B642801D903204D
:1019600098E7C848006800F400300028F2D010E082
:10197000FFF724FD054606E0FFF720FD401B642825
:1019800001D9032086E7BF48006800F40030002832
:10199000F2D1207800F00200022857D1B9484068FF
:1019A00000F00C0050B1B748406800F00C00082867
:1019B00018D1B448406800F4803098B9B148006844
:1019C00000F0020020B12069012801D0012061E768
:1019D000AC48006820F0F800616940EAC100A949FC
:1019E000086033E02069E8B10120A7490860FFF7EB
:1019F000E5FC054606E0FFF7E1FC401B022801D9A3
:101A0000032047E79F48006800F002000028F2D05A
:101A10009C48006820F0F800616940EAC1009949DB
:101A2000086013E0002098490860FFF7C7FC0546EE
:101A300006E0FFF7C3FC401B022801D9032029E779
:101A40009048006800F002000028F2D1207800F0F1
:101A5000080008282DD1A069B8B101208B49086081
:101A6000FFF7ACFC054606E0FFF7A8FC401B022888
:101A700001D903200EE78348406A00F002000028E5
:101A8000F2D0012000F0BAFF13E000207F49086087
:101A9000FFF794FC054606E0FFF790FC401B022888
:101AA00001D90320F6E67748406A00F002000028DA
:101AB000F2D1207800F00400042873D10027714887
:101AC000C06900F0805070B900BF6E48C06940F036
:101AD00080506C49C8610846C06900F08050009091
:101AE00000BF00BF01276A48006800F48070B0B9E9
:101AF0006748006840F4807065490860FFF75EFC45
:101B0000054606E0FFF75AFC401B642801D9032074
:101B1000C0E65F48006800F480700028F2D000BF83
:101B2000E068012806D15748006A40F00100554995
:101B3000086227E0E06858B95248006A20F00100C6
:101B4000504908620846006A20F00400086219E063
:101B5000E06805280BD14B48006A40F00400494971
:101B600008620846006A40F0010008620AE0454841
:101B7000006A20F00100434908620846006A20F02C
:101B80000400086200BFE068A0B1FFF717FC05463B
:101B900009E0FFF713FC401B41F28831884202D96B
:101BA000032077E622E03748006A00F002000028B0
:101BB000EFD012E0FFF702FC054608E0FFF7FEFB5E
:101BC000401B41F28831884201D9032062E62D484A
:101BD000006A00F002000028F0D1012F05D1294849
:101BE000C06920F080502749C86100BFE069C8B3D0
:101BF0002448406800F00C00082860D0E069022802
:101C000048D1002020490866FFF7D8FB054606E0CA
:101C1000FFF7D4FB401B022801D903203AE61948FC
:101C2000006800F000700028F2D1206AB0F5803F13
:101C300007D11448406820F40030A16808431149D6
:101C40004860D4E9080108430E49496821F4741139
:101C500008430C49486001200B490866FFF7AEFBBA
:101C6000054607E03DE0FFF7A9FB401B022801D92C
:101C700003200FE60348006800F000700028F2D04F
:101C80002FE0000000100240000042428004424267
:101C900000700040002014490866FFF78FFB0546DE
:101CA00006E0FFF78BFB401B022801D90320F1E57A
:101CB0000E48006800F000700028F2D111E0E069E1
:101CC000012800D1E6E50948466806F48031206A1B
:101CD000814204D106F47011606A814201D0012072
:101CE000D8E50020D6E50000000042420010024086
:101CF000704770B504462546681EB0F1807F01D359
:101D000001200FE0681E4FF0E02148610F214FF0E5
:101D1000FF3003F0E3FA00204FF0E0218861072054
:101D20000861002070BD10B5FFF7E2FF10BD7047DD
:101D3000704710B504460CB9012010BD94F83D0061
:101D400028B9002084F83C00204600F025F8022045
:101D500084F83D00211D206802F0F0FE012084F887
:101D6000460000BF84F83E0001213F20015540207D
:101D700001554120015500BF00BF012084F84200F9
:101D800043200155442001554520015500BF012045
:101D900084F83D000020D0E770470000014691F82C
:101DA0003D00012801D001207047022081F83D004C
:101DB0000868C06840F001000B68D860164B0868DE
:101DC000984213D0154B086898420FD00868B0F1BC
:101DD000804F0BD0124B0868984207D0114B08680F
:101DE000984203D0104B086898420CD1086880686C
:101DF00000F00702062A0CD00868006840F00100D5
:101E00000B68186005E00868006840F001000B6886
:101E100018600020C8E70000002C01400034014099
:101E20000004004000080040000C0040704710B55E
:101E3000044620680069C0F34000D8B12068C0683B
:101E4000C0F34000B0B16FF00200216808610120CA
:101E500020772068806900F0030018B12046FFF762
:101E6000E5FF05E0204600F0ADF8204600F05DF902
:101E70000020207720680069C0F38000D8B1206876
:101E8000C068C0F38000B0B16FF004002168086141
:101E9000022020772068806900F4407018B1204645
:101EA000FFF7C4FF05E0204600F08CF8204600F064
:101EB0003CF90020207720680069C0F3C000D8B149
:101EC0002068C068C0F3C000B0B16FF0080021689E
:101ED0000861042020772068C06900F0030018B171
:101EE0002046FFF7A3FF05E0204600F06BF82046F0
:101EF00000F01BF90020207720680069C0F3001073
:101F0000D8B12068C068C0F30010B0B16FF0100005
:101F100021680861082020772068C06900F44070BB
:101F200018B12046FFF782FF05E0204600F04AF88E
:101F3000204600F0FAF8002020772068006900F0C1
:101F4000010058B12068C06800F0010030B16FF0A6
:101F5000010021680861204600F062F920680069EC
:101F6000C0F3C01058B12068C068C0F3C01030B1D1
:101F70006FF08000216808612046FFF7D8FE2068D6
:101F80000069C0F3801058B12068C068C0F38010A9
:101F900030B16FF0400021680861204600F041F93F
:101FA00020680069C0F3401058B12068C068C0F3D1
:101FB000401030B16FF02000216808612046FFF723
:101FC000B7FE10BD704770B504460D46164600BFFB
:101FD00094F83C00012801D1022070BD012084F852
:101FE0003C0000BF36B1042E1BD0082E31D00C2E81
:101FF0005ED145E02946206802F000FE2068806935
:1020000040F00800216888612068806920F00400A1
:10201000216888612068806929690843216888618E
:1020200047E02946206802F021FE2068806940F4DC
:102030000060216888612068806920F480602168E0
:10204000886120688069296940EA012021688861E7
:102050002FE02946206802F047FE2068C06940F062
:1020600008002168C8612068C06920F00400216868
:10207000C8612068C069296908432168C86118E0FF
:102080002946206802F06CFE2068C06940F40060B8
:102090002168C8612068C06920F480602168C86137
:1020A0002068C069296940EA01202168C86100E010
:1020B00000BF00BF00BF002084F83C0000BF00BF8D
:1020C0008BE710B504460CB9012010BD94F83D0013
:1020D00028B9002084F83C00204600F025F80220B2
:1020E00084F83D00211D206802F028FD012084F8BD
:1020F000460000BF84F83E0001213F2001554020EA
:1021000001554120015500BF00BF012084F8420065
:1021100043200155442001554520015500BF0120B1
:1021200084F83D000020D0E77047704770B5044642
:102130000D4615B994F83E000BE0042D02D13F2066
:10214000005D06E0082D02D14020005D01E0412045
:10215000005D012801D0012070BD1DB9022084F866
:102160003E000EE0042D03D102213F20015508E07E
:10217000082D03D102214020015502E00221412017
:10218000015501222946206802F026FD1F492068DA
:10219000884203D01E492068884201D1012000E016
:1021A000002028B12068406C40F400402168486459
:1021B00016492068884213D01549206888420FD0FC
:1021C0002068B0F1804F0BD012492068884207D0B8
:1021D00011492068884203D01049206888420CD1F8
:1021E0002068806800F00706062E0CD02068006882
:1021F00040F001002168086005E02068006840F0B8
:102200000100216808600020A6E70000002C0140C2
:10221000003401400004004000080040000C004071
:102220007047704770B50446002520684069C0F3C8
:10223000C01594F8390021280ED16DB1206840698D
:1022400020F0800021684861206B10B1206BFEF700
:1022500041FE204602F004FF20684069C0F380156B
:1022600094F83A0022280ED16DB12068406920F020
:10227000400021684861606B10B1606BFEF72AFE78
:10228000204602F0DDFE002070BD704710B5044608
:102290000CB9012010BDA06900B100E000BF94F8A6
:1022A000390028B9002084F83800204600F027F8CB
:1022B000242084F839002068C06820F40050216888
:1022C000C860204602F0D6FE2068006920F49040E5
:1022D000216808612068406920F02A00216848616F
:1022E0002068C06840F400502168C8600020E063A6
:1022F000202084F8390084F83A000020CAE77047AB
:1023000077B581B00446154694F83A00202850D19C
:10231000029800B115B9012004B070BD00BF94F857
:102320003800012801D10220F6E7012084F83800A6
:1023300000BF0298A062A5850020E063222084F8F7
:102340003A001D48616B88621C48616BC8621C487A
:10235000616B08630020616B486302AE32682368DA
:10236000191D2B46606BFEF727FE00BF0020009072
:1023700020680068009020684068009000BF00BF9F
:1023800000BF002084F8380000BF2068C06840F417
:1023900080702168C8602068406940F001002168B1
:1023A00048612068406940F0400021684861002091
:1023B000B2E70220B0E70000ED4F000833500008FC
:1023C0009D4F0008704770472DE9F84F04460E46B0
:1023D000174699464FF0000A94F8390020285AD140
:1023E00006B117B90120BDE8F88F00BF94F8380096
:1023F000012801D10220F6E7012084F8380000BF4F
:102400000020E063212084F83900FEF7D7FF8246E0
:10241000A784E784A068B0F5805F04D1206910B973
:102420000025B04602E035464FF0000800BF00200E
:1024300084F8380000BF1BE053460022802120466C
:10244000CDF8009002F094FE08B10320CBE745B927
:10245000B8F80000C0F308002168486008F10208DD
:1024600003E02878216848606D1CE08C401EE08401
:10247000E08C0028E0D15346002240212046CDF8D0
:10248000009002F075FE08B10320ACE7202084F82C
:1024900039000020A7E70220A5E700BFFEE700BF44
:1024A000FEE700BFFEE7000010B5044604E00B495C
:1024B0002046FDF7FBFE044609492046FEF79AF93F
:1024C000F5D304E005492046FDF79EFE0446054984
:1024D0002046FEF785F9F5D3204610BD0000B44331
:1024E00000003443000034C310B50446204600F019
:1024F0009BFA2046FEF74AFC4FF6FF70A4F82A012B
:102500000020C4F82C0110BD30B50246E520805CE7
:1025100008B9012030BDDC20835AE0208158002515
:10252000E5208554042B05D04FF6FF70A2F82A0150
:102530000220EFE70878FF2805D04FF6FF70A2F8D9
:102540002A010320E6E74878FF280BD18878FD2888
:1025500008D1C878FB2805D14FF6FF70A2F82A01F0
:102560000520D7E708784D7828448D782844C4B2F0
:10257000C878A04205D04FF6FF70A2F82A010420C7
:10258000C8E788784D7840EA0520A2F82A010020A3
:10259000C0E738B50446FEF711FF0546D4F82C0114
:1025A00030B1D4F82C01281A232801D2012038BDDB
:1025B00094F828010090012269462046FEF777FC36
:1025C000C4F82C510020F2E71CB5044606A103C94B
:1025D000CDE9000140F22D10005D8DF80300694641
:1025E000204600F08BFC1CBDFFAA24000000000068
:1025F00010B50446204600F00FFC2046FEF7C6FB4F
:10260000204600F0B7F9204600F0C8F9204600F057
:10261000D9F9204600F09AF92046FFF7D5FF0021AE
:10262000204600F081F910BD70B504464FF4957056
:10263000005B00F4007090B3B4F93801FEF734F891
:1026400006464FF08E41FDF769FE05464FF0834187
:10265000FDF732FE4FF4A0710851B4F93A01FEF7CC
:1026600023F806464FF08E41FDF758FE05464FF021
:102670008341FDF721FE4FF4A2710851B4F93C01EA
:10268000FEF712F806464FF08E41FDF747FE05466D
:102690004FF08341FDF710FE4FF4A47108514FF441
:1026A0009570005B00F4806078B3B4F94C01FDF7DD
:1026B000FBFF06464FF08E41FDF730FE05465749B9
:1026C000FDF7FAFD4FF4AA710851B4F94E01FDF778
:1026D000EBFF06464FF08E41FDF720FE05464F49C1
:1026E000FDF7EAFD4FF4AC710851B4F95001FDF764
:1026F000DBFF06464FF08E41FDF710FE05464749C9
:10270000FDF7DAFD4FF4AE7108514FF49570005BA0
:1027100000F4006078B3B4F96001FDF7C5FF064628
:102720004FF08E41FDF7FAFD05463D49FDF7C4FD2A
:102730004FF4B4710851B4F96201FDF7B5FF0646D4
:102740004FF08E41FDF7EAFD05463549FDF7B4FD32
:102750004FF4B6710851B4F96401FDF7A5FF0646C0
:102760004FF08E41FDF7DAFD05462D49FDF7A4FD3A
:102770004FF4B87108514FF49570005B00F480502D
:10278000A0B1B4F97401FDF78FFF4FF4BE71085189
:10279000B4F97601FDF788FF4FF4C0710851B4F920
:1027A0007801FDF781FF4FF4C27108514FF4957025
:1027B000005D00F0020078B3B4F98801FDF774FF02
:1027C00005464FF08E41FDF7A9FD4FF4C871085141
:1027D000B4F98A01FDF768FF05464FF08E41FDF719
:1027E0009DFD4FF4CA710851B4F98C01FDF75CFFEF
:1027F00005464FF08E41FDF791FD4FF4CC71085125
:10280000B4F98E01FDF750FF05464FF08E41FDF7FC
:1028100085FD4FF4CE71085170BD00000000FA44F0
:102820000000344330B50146E520405C002879D0F3
:1028300000206DE0E0225258125C552A66D1002338
:10284000002206E0E02464588518645D1C44E3B26D
:10285000521C0A2AF6DBE022545800F10A02A25C5C
:102860009A4251D1E0225458421CA25C503A0A2AA2
:1028700048D2DFE802F005101B2631474747473CA6
:10288000E0225458821C14442568C1F82E51646813
:10289000C1F8324137E0E0225458821C14442568C4
:1028A000C1F838516468C1F83C412CE0E02254582A
:1028B000821C14442568C1F84C516468C1F8504129
:1028C00021E0E0225458821C14442568C1F860516C
:1028D0006468C1F8644116E0E0225458821C144434
:1028E0002568C1F874516468C1F878410BE0E022B2
:1028F0005458821C14442568C1F888516468C1F892
:102900008C4100E000BF00E001E000BF00BF401CC0
:10291000DC22525A82428DDC0022E5204254012002
:1029200030BDFFE70020FBE77CB505460C4605A15E
:1029300003C9CDE900018DF803406946284600F03F
:10294000DDFA7CBDFFAA6300000000001CB5044650
:1029500006A103C9CDE900014FF49670005D8DF822
:1029600003006946204600F0C9FA1CBDFFAA2300F7
:10297000000000001CB5044606A103C9CDE9000112
:1029800094F828018DF803006946204600F0B6FA55
:102990001CBD0000FFAA0400000000001CB5044696
:1029A00006A103C9CDE9000140F22910005D8DF8B0
:1029B00003006946204600F0A1FA1CBDFFAA0300EF
:1029C000000000001CB5044609A103C9CDE90001BF
:1029D0004FF49570005B00128DF803004FF4957072
:1029E000005D8DF804006946204600F087FA1CBDA2
:1029F000FFAA0200000000007047000008B5084967
:102A00000968C9084FF47A72B1FBF2F141430091B1
:102A100000BF00BF00994A1E00920029F9D108BDED
:102A2000400900207047000090F8281111B90021DA
:102A300080F8281100BFDE21095A11B91022DE21C9
:102A40000A5200BF00BF416811B94FF4E131416043
:102A500000BF00BF016809B90449016000BF01223D
:102A600080F8C92080F8C820704700000048004066
:102A700008B52D4A016991420DD100BF2B498969E2
:102A800041F00401294A91611146896901F004016C
:102A9000009100BF47E0264A016991420DD100BF75
:102AA0002249896941F00801204A916111468969EA
:102AB00001F00801009100BF35E01E4A0169914212
:102AC0000DD100BF1949896941F01001174A916180
:102AD0001146896901F01001009100BF23E0164AF8
:102AE000016991420DD100BF1049896941F020016F
:102AF0000E4A91611146896901F02001009100BFE1
:102B000011E00E4A016991420DD100BF0749896960
:102B100041F04001054A91611146896901F0400187
:102B2000009100BF00BF08BD000801400010024036
:102B3000000C014000100140001401400018014049
:102B400010B504462068012808D1627D217D062049
:102B5000FEF714FD0620FEF701FD69E0206802285B
:102B600008D1627D217D0720FEF708FD0720FEF7D2
:102B7000F5FC5DE02068042808D1627D217D0820F5
:102B8000FEF7FCFC0820FEF7E9FC51E0206808286D
:102B900008D1627D217D0920FEF7F0FC0920FEF7B7
:102BA000DDFC45E02068102808D1627D217D0A20E7
:102BB000FEF7E4FC0A20FEF7D1FC39E0206820286B
:102BC0000DD0206840280AD02068802807D02068CF
:102BD000B0F5807F03D02068B0F5007F08D1627D1A
:102BE000217D1720FEF7CAFC1720FEF7B7FC1FE077
:102BF0002068B0F5806F13D02068B0F5006F0FD05B
:102C00002068B0F5805F0BD02068B0F5005F07D07A
:102C10002068B0F5804F03D02068B0F5004F07D191
:102C2000627D217D2820FEF7A9FC2820FEF796FC76
:102C300010BD10B5044621462069FEF71FFA10BDED
:102C400000B58FB0282105A8FDF7B7FA1421684612
:102C5000FDF7B3FA012005900004069000200790CC
:102C60000120099002200C90C1030D914FF4E01156
:102C70000E9105A8FEF70AFE08B100BFFEE70F207F
:102C8000009002200190002002904FF48060039099
:102C90000020049002216846FEF7C2FC08B100BF84
:102CA000FEE70FB000BD00002DE9F0470446A08903
:102CB00043F23331884211DD06206060A089FDF7C0
:102CC000FCFC8146FDF744FD0746474A474BFDF7AC
:102CD0007CFC0546FDF723FDA06081E0A08941F65C
:102CE0009911884211DD05206060A089FDF7E5FC9F
:102CF0008146FDF72DFD07463B4A3D4BFDF765FC40
:102D00000546FDF70CFDA0606AE0A08940F6CC41C5
:102D1000884211DD04206060A089FDF7CEFC814669
:102D2000FDF716FD0746304A324BFDF74EFC0546CF
:102D3000FDF7F5FCA06053E0A08940F2666188428F
:102D400011DD03206060A089FDF7B7FC8146FDF727
:102D5000FFFC0746244A284BFDF737FC0546FDF7E4
:102D6000DEFCA0603CE0A089B0F54D7F11DB0220C5
:102D70006060A089FDF7A1FC8146FDF7E9FC0746EC
:102D8000194A1E4BFDF721FC0546FDF7C8FCA06063
:102D900026E0A089B0F5CD7F11DB01206060A0891D
:102DA000FDF78BFC8146FDF7D3FC07460E4A144B1A
:102DB000FDF70BFC0546FDF7B2FCA06010E000201B
:102DC0006060A089FDF779FC8146FDF7C1FC0746EC
:102DD000054A0C4BFDF7F9FB0546FDF7A0FCA0608A
:102DE00009482060BDE8F0879A9999999999194006
:102DF000999909409999F93F9999E93F9999D93F4A
:102E00009999C93F9999B93F0030004010B51420F5
:102E1000FDF7B9FE10BD000090F828110A292ED246
:102E2000DFE801F005090D1115191D2125294FF4C1
:102E30001661416023E04FF4965141601FE04FF46A
:102E4000165141601BE04FF49641416017E04FF48A
:102E50001641416013E04FF4614141600FE04FF4CF
:102E6000E13141600BE04FF46131416007E04FF424
:102E7000E121416003E04FF46121416000BF00BFE8
:102E800000BF016809B90849016000BF074A01682D
:102E9000914207D000BF90F8C91011B9012280F803
:102EA000C92000BF704700000044004000500040AF
:102EB0007CB505460C460FA103C9CDE9000124B13C
:102EC000012C06D0FF2C0CD107E000208DF8030068
:102ED00008E001208DF8030004E0FF208DF80300D6
:102EE00000BF00BF00BF052269462846FDF7DFFF8F
:102EF0007CBD0000FFAA00000000000070B5044681
:102F00000D46204600F00EF8FFF780FF0522294607
:102F10002046FDF7CCFFFFF779FF00212046FFF7A1
:102F2000C7FF70BD10B50446052202492046FDF7D3
:102F3000BEFF10BDD468000808B5364A016891424A
:102F40000DD100BF3449896941F40061324A916171
:102F50001146896901F40061009100BF59E00168E0
:102F6000B1F1804F0DD100BF2B49C96941F001017A
:102F7000294AD1611146C96901F00101009100BFE0
:102F800047E0264A016891420DD100BF2249C96934
:102F900041F00201204AD1611146C96901F00201E4
:102FA000009100BF35E01E4A016891420DD100BF7B
:102FB0001949C96941F00401174AD1611146C9692B
:102FC00001F00401009100BF23E0164A016891421C
:102FD0000DD100BF1049C96941F008010E4AD16105
:102FE0001146C96901F00801009100BF11E00E4AC5
:102FF000016891420DD100BF0749896941F4005130
:10300000054A91611146896901F40051009100BFA0
:1030100000BF08BD002C0140001002400004004029
:1030200000080040000C00400034014038B5044660
:10303000022161670121A1670321E16700BF824886
:10304000806940F00100804988610846806900F08D
:103050000100009000BF00BF7C492068884230D149
:103060008620005D48B900BF7949486820F0C0005B
:1030700040F0E06000BF4860E0E08620005D01288D
:103080000AD100BF7249486820F0C00040F0E060FB
:1030900040F040004860D1E08620005D022801D168
:1030A00000BFFEE78620005D0328E5D100BF684928
:1030B000486820F0C00040F0E06040F0C000486088
:1030C000BCE02068B0F1804F39D18620005D48B95E
:1030D00000BF5F49486820F4407040F0E06000BFE6
:1030E0004860ABE08620005D01280AD100BF584946
:1030F000486820F4407040F0E06040F48070486020
:103100009CE08620005D02280AD100BF5049486833
:1031100020F4407040F0E06040F4007048608DE0C2
:103120008620005D0328A7D100BF4949486820F4E4
:10313000407040F0E06040F4407048607EE04549F7
:103140002068884230D18620005D48B900BF4049E0
:10315000486820F4406040F0E06000BF48606DE0E7
:103160008620005D01280AD100BF3949486820F453
:10317000406040F0E06040F4006048605EE086201F
:10318000005D022801D100BFFEE78620005D032814
:1031900054D100BF2E49486820F4406040F0E06000
:1031A00040F44060486049E02B492068884224D1BF
:1031B0008620005D40B900BF2549486840F0E060C6
:1031C00020F48050486039E08620005D012801D15C
:1031D00000BFFEE78620005D022801D100BFFEE7A8
:1031E0008620005D032829D100BF1949486840F0B6
:1031F000E06040F48050486020E018492068884230
:103200001CD194F86C000C2818D18620005D40B9C0
:1032100000BF0F49486840F0E06020F4803048600B
:103220000CE08620005D032808D100BF08494868EB
:1032300040F0E06040F48030486000BF012104F1BC
:103240007000FDF7A7FC38BD00100240002C0140C3
:10325000000001400004004000080040000C004055
:1032600010B5044600BF0021A06EFDF7B9FA01D1E8
:10327000FC48A06600BF00BF606E08B932206066DF
:1032800000BF206800B110BD80200059F649884277
:1032900073D1206F802871D00CDC042844D004DC6A
:1032A000012819D002286AD12AE0082850D04028E5
:1032B000F9D165E0B0F5806F76D006DCB0F5807F9F
:1032C00073D0B0F5007FEED199E0B0F5006F6DD00E
:1032D000B0F5004FE7D1CEE0E4482060002084F84C
:1032E0006C00002186200155E1480068007C10B187
:1032F000E0A001F0DBFF0120DD4909680874D3E09C
:10330000DA482060042084F86C00002186200155F2
:10331000D7480068407C10B1DEA001F0C7FF012053
:10332000D34909684874BFE0D0482060082084F879
:103330006C00002186200155CD480068807C10B1CA
:10334000DCA001F0B3FF0120C94909688874ABE033
:103350004FF0804020600C2084F86C000021862013
:103360000155C3480068C07910B1DAA001F09EFF92
:103370000120BF490968C87196E096E017E08FE028
:10338000DC482060002084F86C0000218620015574
:10339000B7480068007A10B1D7A001F087FF01207C
:1033A000B349096808727FE03DE014E04FE0D1487E
:1033B0002060042084F86C00002186200155AC4870
:1033C0000068407A10B1D4A001F070FF0120A84934
:1033D0000968487268E0D8482060002084F86C00D2
:1033E000002186200155A2480068007810B1D3A0C2
:1033F00001F05CFF01209E490968087054E0CE4846
:103400002060042084F86C00002186200155984833
:103410000068407810B1D1A001F048FF0120944924
:103420000968487040E0C4482060082084F86C00B7
:103430000021862001558E480068807810B1CFA009
:1034400001F034FF01208A49096888702CE0BA48ED
:1034500020600C2084F86C000021862001558448EF
:103460000068C07810B1CDA001F020FF0120804994
:103470000968C87018E04FF080402060002084F890
:103480006C0003218620015579480068007910B14D
:10349000CAA001F00BFF012075490968087103E01B
:1034A000CEA001F003FF00BF9DE380200059D34967
:1034B000884272D1206F402870D00CDC082843D09D
:1034C00004DC012818D0022869D129E0102850D046
:1034D0002028F9D164E0B0F5007F75D005DC8028A4
:1034E00073D0B0F5807FEFD199E0B0F5806F6DD0EB
:1034F000B0F5006FE8D122E27E482060082084F811
:103500006C0000218620015559480068807A10B16E
:10351000BBA001F0CBFE012055490968887228E262
:10352000744820600C2084F86C000021862001552E
:103530004F480068C07A10B1B9A001F0B7FE012071
:103540004B490968C87214E24FF0804020600420A3
:1035500084F86C00032186200155454800684079B5
:1035600010B1B7A001F0A2FE0120414909684871DD
:10357000FFE160482060002084F86C000121862073
:1035800001553B480068007A10B1B5A001F08EFEED
:103590000120374909680872EBE1EBE117E0E3E14C
:1035A00054482060042084F86C00012186200155D5
:1035B0002F480068407A10B1B1A001F077FE0120D9
:1035C0002B4909684872D4E13DE014E0A2E1B44817
:1035D0002060002084F86C000021862001552448DA
:1035E0000068007B10B1AFA001F060FE012020490F
:1035F00009680873BDE1AA482060042084F86C00C3
:103600000021862001551A480068407B10B1ADA00A
:1036100001F04CFE0120164909684873A9E1A04851
:103620002060082084F86C00002186200155104895
:103630000068807B10B1ABA001F038FE01200C497E
:103640000968887395E1964820600C2084F86C0026
:1036500000218620015506480068C07B00B151E179
:1036600053E100000000F04000080140000C004061
:103670003009002054494D355F434831206973209B
:103680006F6E6C79207573656420627920504130CB
:103690000D0A000054494D355F43483220697320BC
:1036A0006F6E6C79207573656420627920504131AA
:1036B0000D0A000054494D355F434833206973209B
:1036C0006F6E6C7920757365642062792050413289
:1036D0000D0A000054494D325F434834206973207D
:1036E0006F6E6C7920757365642062792050413368
:1036F0000D0A00000004004054494D335F43483137
:10370000206973206F6E6C7920757365642062790F
:10371000205041360D0A000054494D335F43483272
:10372000206973206F6E6C792075736564206279EF
:10373000205041370D0A0000002C014054494D3102
:103740005F434831206973206F6E6C792075736513
:1037500064206279205041380D0A000054494D31EF
:103760005F434832206973206F6E6C7920757365F2
:1037700064206279205041390D0A000054494D31CE
:103780005F434833206973206F6E6C7920757365D1
:103790006420627920504131300D0A0054494D3186
:1037A0005F434834206973206F6E6C7920757365B0
:1037B0006420627920504131310D0A0054494D3264
:1037C0005F434831206973206F6E6C792075736593
:1037D0006420627920504131350D0A00546865201B
:1037E000492F4F20706F72742063616E6E6F74206A
:1037F0006F75747075742050574D0000000C0140B7
:1038000054494D335F434833206973206F6E6C79A0
:103810002075736564206279205042300D0A0000E3
:1038200054494D335F434834206973206F6E6C797F
:103830002075736564206279205042310D0A0000C2
:1038400054494D325F434832206973206F6E6C7962
:103850002075736564206279205042330D0A0000A0
:1038600054494D335F434831206973206F6E6C7942
:103870002075736564206279205042340D0A00007F
:1038800054494D335F434832206973206F6E6C7921
:103890002075736564206279205042350D0A00005E
:1038A0000008004054494D345F434831206973207B
:1038B0006F6E6C7920757365642062792050423692
:1038C0000D0A000054494D345F434832206973208B
:1038D0006F6E6C7920757365642062792050423771
:1038E0000D0A000054494D345F434833206973206A
:1038F0006F6E6C7920757365642062792050423850
:103900000D0A0000B9A001F0D1FC0120BF490968EF
:10391000C8732EE04FF080402060082084F86C00CF
:10392000022186200155B9480068807910B1B8A0FD
:1039300001F0BCFC0120B5490968887119E04FF01D
:10394000804020600C2084F86C0002218620015504
:10395000AE480068C07910B1B5A001F0A7FC012005
:10396000AA490968C87104E0AFF2901001F09EFC0A
:1039700000BF38E180200059B549884261D1206FED
:10398000402808D080281AD0B0F5807F2BD0B0F521
:10399000007F50D13BE0AF482060002084F86C00ED
:1039A00000218620015599480068007D10B1AAA029
:1039B00001F07CFC012095490968087540E0A548A4
:1039C0002060042084F86C000021862001558F4877
:1039D0000068407D10B1A8A001F068FC01208B496F
:1039E000096848752CE09B482060082084F86C002A
:1039F00000218620015585480068807D10B1A6A071
:103A000001F054FC012081490968887518E091484B
:103A100020600C2084F86C000021862001557B4832
:103A20000068C07D10B1A4A001F040FC01207749DE
:103A30000968C87504E0AFF25C2001F037FC00BFF4
:103A4000D1E080200059A449884263D1206FB0F5AD
:103A5000805F09D0B0F5005F1AD0B0F5804F2BD051
:103A6000B0F5004F50D13BE09C482060002084F826
:103A70006C0003218620015564480068007B10B16A
:103A800097A001F013FC012060490968087340E029
:103A900092482060042084F86C00032186200155A0
:103AA0005A480068407B10B195A001F0FFFB01204F
:103AB0005649096848732CE088482060082084F83B
:103AC0006C0003218620015550480068807B10B1AE
:103AD00093A001F0EBFB01204C490968887318E0C2
:103AE0007E4820600C2084F86C000321862001555C
:103AF00046480068C07B10B191A001F0D7FB0120BF
:103B000042490968C87304E0AFF2303001F0CEFBDF
:103B100000BF68E0802000599149884263D1206F3E
:103B2000B0F5007F09D0B0F5006F1AD0B0F5005F96
:103B30002BD0B0F5804F50D13BE08A482060002068
:103B400084F86C0003218620015530480068007815
:103B500010B185A001F0AAFB01202C49096808706A
:103B600040E080482060042084F86C000321862017
:103B7000015526480068407810B183A001F096FBFB
:103B800001202249096848702CE07648206008200E
:103B900084F86C000321862001551C480068807859
:103BA00010B181A001F082FB0120184909688870DA
:103BB00018E06C4820600C2084F86C0003218620FB
:103BC000015512480068C07810B17FA001F06EFB6B
:103BD00001200E490968C87004E0AFF2004001F00E
:103BE00065FB00BF00BF00BFFFF74DBB54494D341C
:103BF0005F434834206973206F6E6C79207573655C
:103C000064206279205042390D0A000030090020FA
:103C100054494D325F434833206973206F6E6C798D
:103C2000207573656420627920504231300D0A009E
:103C300054494D325F434834206973206F6E6C796C
:103C4000207573656420627920504231310D0A007D
:103C5000001001400034014054494D385F43483161
:103C6000206973206F6E6C792075736564206279AA
:103C7000205043360D0A000054494D385F43483206
:103C8000206973206F6E6C7920757365642062798A
:103C9000205043370D0A000054494D385F434833E4
:103CA000206973206F6E6C7920757365642062796A
:103CB000205043380D0A000054494D385F434834C2
:103CC000206973206F6E6C7920757365642062794A
:103CD000205043390D0A0000001401400008004044
:103CE00054494D345F434831206973206F6E6C79BD
:103CF000207573656420627920504431320D0A00CA
:103D000054494D345F434832206973206F6E6C799B
:103D1000207573656420627920504431330D0A00A8
:103D200054494D345F434833206973206F6E6C797A
:103D3000207573656420627920504431340D0A0087
:103D400054494D345F434834206973206F6E6C7959
:103D5000207573656420627920504431350D0A0066
:103D600000180140002C014054494D315F43483157
:103D7000206973206F6E6C79207573656420627999
:103D8000205045390D0A000054494D315F434832F7
:103D9000206973206F6E6C79207573656420627979
:103DA00020504531310D0A0054494D315F434833AD
:103DB000206973206F6E6C79207573656420627959
:103DC00020504531330D0A0054494D315F4348348A
:103DD000206973206F6E6C79207573656420627939
:103DE00020504531340D0A002DE9F04104464720AA
:103DF00060600021A1602149606EB1FBF0F0401EBF
:103E0000E06000212161A1612046FEF75AF918B156
:103E10004C211BA0FCF7F8FE6020A0641749606EDF
:103E2000B1FBF0F0A0F101084046FCF746FC074664
:103E3000A16EFCF741FA06461849FCF76FFA0546F1
:103E4000FCF759FCE0640021216594F86C2004F132
:103E500048012046FEF7B7F818B15A2108A0FCF730
:103E6000D3FE94F86C102046FEF760F918B15E217D
:103E700003A0FCF7C9FEBDE8F081000040420F003E
:103E80002E2E5C4472697665725C5372635C647258
:103E9000765F68616C5F70776D2E63000000C842CA
:103EA00008B5484A016891420DD100BF4649896969
:103EB00041F40061444A91611146896901F400614D
:103EC000009100BF7DE00168B1F1804F0DD100BFCE
:103ED0003D49C96941F001013B4AD1611146C969B7
:103EE00001F00101009100BF6BE0384A0168914286
:103EF0000DD100BF3449C96941F00201324AD16194
:103F00001146C96901F00201009100BF59E0304A31
:103F1000016891420DD100BF2B49C96941F00401EC
:103F2000294AD1611146C96901F00401009100BF1D
:103F300047E0284A016891420DD100BF2249C96972
:103F400041F00801204AD1611146C96901F0080118
:103F5000009100BF35E0204A016891420DD100BFB9
:103F60001949C96941F01001174AD1611146C9695F
:103F700001F01001009100BF23E0184A016891424E
:103F80000DD100BF1049C96941F020010E4AD1612D
:103F90001146C96901F02001009100BF11E0104AEB
:103FA000016891420DD100BF0749896941F4005170
:103FB000054A91611146896901F40051009100BFE1
:103FC00000BF08BD002C014000100240000400406A
:103FD00000080040000C00400010004000140040A9
:103FE0000034014010B504462068B0F1804F0AD17A
:103FF00094F84D2094F84C101C20FDF7BFFA1C20BB
:10400000FDF7ACFA49E02549206888420AD194F8C6
:104010004D2094F84C101D20FDF7B0FA1D20FDF73F
:104020009DFA3AE01E49206888420AD194F84D2052
:1040300094F84C101E20FDF7A1FA1E20FDF78EFA11
:104040002BE01849206888420AD194F84D2094F852
:104050004C103220FDF792FA3220FDF77FFA1CE077
:104060001149206888420AD194F84D2094F84C10E8
:104070003620FDF783FA3620FDF770FA0DE00B4984
:104080002068884209D194F84D2094F84C103720CC
:10409000FDF774FA3720FDF761FA10BD0004004007
:1040A00000080040000C00400010004000140040D8
:1040B0002DE9F041044600BFA06808B90021A160C5
:1040C00000BF00BF206908B90021216100BF00BF07
:1040D00094F84C0010B9022084F84C0000BF00BFD7
:1040E00094F84D0010B9022084F84D0000BFE0683C
:1040F00018B1606808B1BDE8F0810021A06CFCF740
:104100006FFB02D20020A0640AE0A06CFCF720FB49
:1041100005463A4A3A4BFCF72FFB01D23948A064D6
:104120003949A06CFCF766FB14D24FF6FE70606054
:104130006168481CFCF7C1FA06463449A06CFCF7DC
:10414000BBF807463146FCF7E9F80546FCF7D3FA19
:10415000E06050E02E49A06CFCF74CFB14D24EF20C
:10416000FF0060606168481CFCF7A7FA0646274913
:10417000A06CFCF7A1F807463146FCF7CFF80546DE
:10418000FCF7B9FAE06036E0A06CFCF7E1FA05460E
:104190000022204BFCF7F0FA14D247F27F00606057
:1041A0006168481CFCF789FA06461849A06CFCF7C0
:1041B00083F807463146FCF7B1F80546FCF79BFA51
:1041C000E06018E00021A06CFCF714FB13D841F666
:1041D0001F4060606168481CFCF76FFA06460B4997
:1041E000A06CFCF769F807463146FCF797F80546DE
:1041F000FCF781FAE06000BF7DE700009A99991909
:104200005020ED408102694700CC4C4700A08C470C
:1042100000CCCC468099B94010B504462046FDF745
:1042200088FD18B1992103A0FCF7EEFC2046FFF7AA
:10423000D9FE10BD2E2E5C4472697665725C537295
:10424000635C6472765F68616C5F74696D65722E21
:10425000630000007047000008B52D4A01689142D4
:104260000DD100BF2B49896941F48041294A9161F0
:104270001146896901F48041009100BF47E0264A58
:10428000016891420DD100BF2249C96941F4003152
:10429000204AD1611146C96901F40031009100BF83
:1042A00035E01E4A016891420DD100BF1949C96924
:1042B00041F48021174AD1611146C96901F4802176
:1042C000009100BF23E0164A016891420DD100BF62
:1042D0001049C96941F400210E4AD1611146C969EA
:1042E00001F40021009100BF11E00E4A01689142E3
:1042F0000DD100BF0749C96941F48011054AD16158
:104300001146C96901F48011009100BF00BF08BDCA
:1043100000380140001002400044004000480040C6
:10432000004C00400050004010B5044694F8C9000D
:10433000012808D104F18400FCF7F8FD18B19F2191
:1043400008A0FCF761FC94F8C800012808D104F12A
:104350004000FCF7EBFD18B1A52102A0FCF754FCCE
:1043600010BD00002E2E5C4472697665725C53723B
:10437000635C6472765F68616C5F756172742E63F2
:104380000000000038B504462949206888420DD154
:1043900000BF2848406940F00100264948610846AE
:1043A000406900F00100009000BF3FE02249206812
:1043B00088420DD100BF1F48406940F001001D49EF
:1043C00048610846406900F00100009000BF2DE000
:1043D0001A49206888420DD100BF1648406940F054
:1043E0000100144948610846406900F0010000904E
:1043F00000BF1BE01249206888420DD100BF0D4864
:10440000406940F002000B4948610846406900F0ED
:104410000200009000BF09E00A492068884205D1E7
:10442000F32109A0FCF7F0FB00BFFEE738BD000058
:1044300000380140001002400044004000480040A5
:10444000004C0040005000402E2E5C44726976659E
:10445000725C5372635C6472765F68616C5F7561F5
:1044600072742E630000000010B5044694F8C90071
:1044700001283AD13D49206888420AD194F8CB20DE
:1044800094F8CA100F20FDF779F80F20FDF766F8B1
:104490002BE03749206888420AD194F8CB2094F861
:1044A000CA101020FDF76AF81020FDF757F81CE03D
:1044B0003049206888420AD194F8CB2094F8CA1079
:1044C0000D20FDF75BF80D20FDF748F80DE02A49B7
:1044D0002068884209D194F8CB2094F8CA103A2079
:1044E000FDF74CF83A20FDF739F894F8C800012898
:1044F0003AD11E49206888420AD194F8CD2094F818
:10450000CC100E20FDF73AF80E20FDF727F82BE02F
:104510001749206888420AD194F8CD2094F8CC102D
:104520001120FDF72BF81120FDF718F81CE01149B8
:10453000206888420AD194F8CD2094F8CC100C2041
:10454000FDF71CF80C20FDF709F80DE00A4920687A
:10455000884209D194F8CD2094F8CC103B20FDF787
:104560000DF83B20FCF7FAFF10BD000000380140B9
:104570000044004000480040004C004038B504466C
:1045800000BF5348806940F00100514988610846E6
:10459000806900F00100009000BF00BF4D49206815
:1045A000884228D14FF48570005D40B900BF4A4968
:1045B000486840F0E06020F00400486081E04FF47B
:1045C0008570005D032808D100BF4349486840F06A
:1045D000E06040F00400486073E04FF48570005DD7
:1045E000012801D100BFFEE74FF48570005D02286D
:1045F00067D100BFFEE739492068884228D14FF4CF
:104600008570005D40B900BF3349486840F0E06004
:1046100020F00800486054E04FF48570005D0128E8
:1046200001D100BFFEE74FF48570005D022801D183
:1046300000BFFEE74FF48570005D032841D100BF45
:104640002549486840F0E06040F00800486038E0E4
:1046500023492068884234D14FF48570005D48B901
:1046600000BF1D49486820F0300040F0E06000BF06
:10467000486026E04FF48570005D01280AD100BF34
:104680001549486820F0300040F0E06040F010002C
:10469000486016E04FF48570005D022801D100BF2C
:1046A000FEE74FF48570005D03280AD100BF0A4978
:1046B000486820F0300040F0E06040F03000486092
:1046C00000BF022104F1F400FCF764FA38BD0000D9
:1046D000001002400038014000000140004400404A
:1046E0000048004010B504462549206888420AD198
:1046F00094F8252194F824112520FCF73FFF25206C
:10470000FCF72CFF3AE01F49206888420AD194F850
:10471000252194F824112620FCF730FF2620FCF7F1
:104720001DFF2BE01849206888420AD194F8252102
:1047300094F824112720FCF721FF2720FCF70EFF17
:104740001CE01249206888420AD194F8252194F887
:1047500024113420FCF712FF3420FCF7FFFE0DE09B
:104760000B492068884209D194F8252194F8241136
:104770003520FCF703FF3520FCF7F0FE10BD0000EC
:10478000003801400044004000480040004C004018
:104790000050004010B504462046FDF777FD18B1E3
:1047A000912102A0FCF730FA10BD00002E2E5C44CF
:1047B00072697665725C5372635C6472765F68617D
:1047C0006C5F756172742E630000000000BF0168A9
:1047D00009B9C449016000BF00BF416811B94FF475
:1047E000E131416000BF00BF416909B90C2242615B
:1047F00000BF00BF816809B90022826000BF00BF0E
:10480000C16809B90022C26000BF00BF016909B9CF
:104810000022026100BF00BF90F8241111B90121EC
:1048200080F8241100BF00BF90F8251111B90321B1
:1048300080F8251100BF90F8C81001295ED1A94A5F
:104840000168914202D1A849016415E0A74A0168B4
:10485000914203D1A4493C3101640DE0A44A0168AE
:10486000914203D1A0492839016405E0A14A0168B9
:10487000914201D1A049016400BF416C09B91022E5
:10488000426400BF00BF816C09B90022826400BF8E
:1048900000BFC16C09B98022C26400BF00BF016DB6
:1048A00009B90022026500BF00BF416D09B90022AD
:1048B000426500BF00BF816D09B90022826500BF5B
:1048C00000BFC16D09B90022C26500BF00BF90F8EA
:1048D000CC1011B9012280F8CC2000BF00BF90F8A5
:1048E000CD1011B9012280F8CD2000BF00BFEA2110
:1048F000095A11B96422EA210A5200BF90F8C9107E
:10490000012972D1774A0168914204D1764A143262
:1049100084210A5019E0754A0168914204D1724A13
:10492000283284210A5010E0714A0168914204D172
:104930006D4A143A84210A5007E06E4A0168914298
:1049400003D16D4A283A84210A5000BF88210958B2
:1049500011B9002288210A5000BF00BF8C210958DC
:1049600011B900228C210A5000BF00BF90210958C4
:1049700011B9802290210A5000BF00BF942109582C
:1049800011B9002294210A5000BF00BF9821095894
:1049900011B9002298210A5000BF00BF9C2109587C
:1049A00011B920229C210A5000BF00BFA021095844
:1049B00011B90022A0210A5000BF00BF90F8CA1010
:1049C00011B9012280F8CA2000BF00BF90F8CB10B7
:1049D00011B9012280F8CB2000BF00BFDE21095AA7
:1049E00011B96422DE210A5200BFD0F8F41021B1BF
:1049F0004FF48671095801B170473A4A01689142F3
:104A00000FD14915C0F8F4103C4A4FF482710A5096
:104A100012154FF486710A50384A4FF48E710A50BD
:104A20004EE0324A016891420FD10421C0F8F410DF
:104A3000324A4FF482710A5008224FF486710A50AC
:104A40002E4A4FF48E710A503AE0294A0168914289
:104A50000FD10915C0F8F410294A4FF482710A5099
:104A6000D2144FF486710A50254A4FF48E710A50C1
:104A700026E0204A016891420FD10915C0F8F410D0
:104A8000204A4FF482710A50D2144FF486710A50B2
:104A90001C4A4FF48E710A5012E01B4A0168914281
:104AA0000ED18914C0F8F410164A4FF482710A50DE
:104AB00004224FF486710A50144A4FF48E710A5042
:104AC0000222F8210A5000224FF488710A50FC217A
:104AD0000A500322091D0A5000224FF485710A541E
:104AE00000BF89E700380140440002400044004014
:104AF00000480040004C00405804024000080140BB
:104B0000000C014000100140005000400014014022
:104B100010B5FCF7A7F810BD7047000010B50348AA
:104B2000FCF722F900F088F910BD00004C000020CD
:104B300070477047704770477047000010B50268B3
:104B4000204B98420ED0204B98420BD0B0F1804FB2
:104B500008D01E4B984205D01D4B984202D01D4BE9
:104B6000984203D122F070024B681A43154B9842C9
:104B70000ED0154B98420BD0B0F1804F08D0134B9C
:104B8000984205D0124B984202D0124B984203D162
:104B900022F44072CB681A4322F080034C6943EA46
:104BA000040202608B68C3620B688362054B984203
:104BB00002D0054B984201D10B6903630123436185
:104BC00010BD0000002C01400034014000040040F2
:104BD00000080040000C004030B501F01F05012422
:104BE00004FA05F3046A9C430462046A01F01F0599
:104BF00002FA05F52C43046230BD000030B5056AA9
:104C000025F001050562026A4368846924F0700496
:104C100024F003040D682C4322F002028D682A431D
:104C2000104DA84200D103E00F4DA84206D100BFAD
:104C300022F00802CD682A4322F00402094DA8425E
:104C400002D0094DA84207D123F4807323F40073E6
:104C50004D692B438D692B43436084614D684563E7
:104C6000026230BD002C01400034014030B5056ABD
:104C700025F010050562026A4368846924F4E04463
:104C800024F440740D6844EA052422F020028D6863
:104C900042EA0512124DA84200D103E0114DA8428C
:104CA00007D100BF22F08002CD6842EA051222F04F
:104CB00040020B4DA84202D00A4DA84209D123F46C
:104CC000806323F400634D6943EA85038D6943EAF9
:104CD0008503436084614D688563026230BD0000D6
:104CE000002C01400034014030B5056A25F4807580
:104CF0000562026A4368C46924F0700424F0030466
:104D00000D682C4322F400728D6842EA0522124D90
:104D1000A84200D103E0114DA84207D100BF22F400
:104D20000062CD6842EA052222F480620A4DA84260
:104D300002D00A4DA84209D123F4805323F4005332
:104D40004D6943EA05138D6943EA05134360C46165
:104D50004D68C563026230BD002C01400034014043
:104D600030B5056A25F480550562036A4468C26956
:104D700022F4E04222F440720D6842EA052223F454
:104D800000538D6843EA0533084DA84202D0084D10
:104D9000A84204D124F480444D6944EA8514446057
:104DA000C2614D680564036230BD0000002C014003
:104DB000003401407047704710B50446174804603E
:104DC00000200FE000EB80013C2202EB41010AB21F
:104DD000134921F810204FF6FF71114A083A22F8C2
:104DE0001010401C0428EDDB00200D490839087420
:104DF00048610A48006818B10020084909688847D6
:104E00000848FDF771FB0020074908700749087042
:104E10000749087001200749087010BD20090020CB
:104E2000800A0020C4010020240900202509002058
:104E3000260900202709002010B53648007820B147
:104E4000012813D002285DD123E033480078401CAC
:104E5000C0B231490870072807DB00202F490870CD
:104E600001202F4908702B49087051E02D48006837
:104E700040B12D49294A92F9002031F912002949FF
:104E8000096888472948FDF784FB022021490870FA
:104E90003EE02648FDF738FB2448B0F82A112248A6
:104EA00008381E4A92F9002020F812101B4800789A
:104EB0001D4908390874FCF781FA1B490839486113
:104EC0001648007816490978084440B2134908701A
:104ED000084690F90000032805DB03200870FF2036
:104EE0000F4908700AE00D4890F90000002805DC21
:104EF00000200A490870012009490870012005496D
:104F0000087005E00020034908700349087000BFDD
:104F100000BF10BD2409002025090020260900201B
:104F20002709002020090020800A0020C401002059
:104F300010B5FBF79DFE10BD10B506210E48FBF71E
:104F4000DFFE01210D48FBF7DBFE0C490C48FBF7A7
:104F5000ECFD0C48FBF71AFF0B48FDF749FB0B482B
:104F6000FBF708FF0948FBF7F9FE0948FFF724FFA4
:104F70000848FBF789FE10BDF4020020240600203B
:104F8000140900209C000020AC0600204C000020EA
:104F9000A16500084C0800207047704770B50646B0
:104FA0000025746A20684069C0F3C01594F8390080
:104FB000212805D125B10020E084204600F050F8DA
:104FC00020684069C0F3801594F83A00222805D182
:104FD00025B10020E085204600F032F8E06B40F07B
:104FE0001000E0632046FDF750F970BD70B505462E
:104FF0006C6A2868006800F02000B0B90020E085E5
:105000002068C06820F480702168C860206840690A
:1050100020F00100216848612068406920F04000CC
:1050200021684861202084F83A002046FDF7CAF93B
:1050300070BD70B50446656A2846FDF7C4F970BDB9
:105040000168C96821F490710268D16001684969FA
:1050500021F0010102685161202180F83A10704767
:105060000168C96821F0C0010268D160202180F880
:105070003910704770B504462168096921F4405120
:10508000E2681143226811612269A16811436269D3
:1050900041EA02052168C96841F20C629143294343
:1050A0002268D1602168496921F44071A2691143E5
:1050B000226851612D4A2168914202D1FCF78CFB94
:1050C00001E0FCF779FB00EBC00101EB0011626825
:1050D0009200B1FBF2F100EBC00202EB0012636838
:1050E0009B00B2FBF3F26423B2FBF3F202EBC203C8
:1050F00003EB0212A1EB8201322202EB01116422C6
:10510000B1FBF2F101F0F00100EBC00202EB001282
:1051100063689B00B2FBF3F26423B2FBF3F201EB92
:10512000021200EBC00101EB001163689B00B1FBB0
:10513000F3F100EBC00303EB00136668B600B3FBAA
:10514000F6F36426B3FBF6F303EBC30606EB031397
:10515000A1EB8301322303EB01116423B1FBF3F1D3
:1051600001F00F0111442268916070BD00380140C8
:105170002DE9F04104460D4617469846069E21E06B
:10518000701CF8B12EB1FCF719F9A0EB0800B04281
:1051900018D92068C06820F4D0702168C8602068E1
:1051A000406920F0010021684861202084F839001E
:1051B00084F83A0000BF002084F8380000BF0320C4
:1051C000BDE8F081206800682840A84201D1012094
:1051D00000E00020B842D3D00020F1E710B502482B
:1051E000FBF71FFE10BD00009C00002010B5064814
:1051F000FBF717FE0448FDF715FB012802D1024812
:10520000FDF712FA10BD0000AC06002010B50248F0
:10521000FBF707FE10BD0000C401002000BFFEE741
:1052200014A000F043F824E096211948FAF7C5FFCE
:1052300017491848FBF721FE1749087008460078FF
:10524000002801DD01F02CFA14480078012801D172
:1052500000F0E2FF12480078012801D100F030FD93
:1052600010480078012801D100F076FE0E48FBF7C7
:1052700005FDD9E7556E64657277617465722072B9
:105280006F626F74207374617274730D0A00000092
:105290004C0900209C0000206008002076080020B7
:1052A00075080020770800204C0800200FB4054B3B
:1052B00010B503A9044A029800F0F6F810BC5DF896
:1052C00014FB00003D5C00082C0900200248006827
:1052D000C0F30220704700000CED00E010B500287C
:1052E00004DB0A07130E054A135406E00A07140EDE
:1052F000034A00F00F031B1FD45410BD00E400E06C
:1053000018ED00E002E008C8121F08C1002AFAD117
:1053100070477047002001E001C1121F002AFBD135
:10532000704700002DE9FF5F82B00021DDE9043005
:10533000020DDDF840B0034318D044F61050A2F23D
:10534000FF3242431514119801281FD0A5EB0B0022
:10535000401C5FEA000A4FF000064E4FDFF838911C
:10536000B046504615D5CAF1000413E01198012447
:105370004AA3012801D16FEA0B010298119AC0E9F2
:105380000031C0E9024206B0BDE8F09FCBF1000059
:10539000DFE704460021404A491842EB0450CDE9BA
:1053A000001012E0E00707D032463B46404649462F
:1053B000FBF799F88046894632463B461046194627
:1053C000FBF791F806460F466410002CEAD1DDE9A0
:1053D0000401DDE90023BAF1000F06DAFBF783F8D8
:1053E00042464B46FBF77FF805E0FBF7EEF84246F6
:1053F0004B46FBF7EAF804460E460022284BFBF723
:10540000BBF903D84FF0FF30014607E00022254BDF
:1054100020463146FAF7C0FFFBF7F2FA102409E004
:10542000002C0ADB0A220023FBF704FA039B30322C
:105430001A55641E50EA0102F2D1641C039AC4F1A9
:1054400011031444119A012A03D0012208430DD1FB
:105450000AE0084304D000204FF0110B119072E7CE
:10546000A3EB0B056D1E0DE05B4504DD4FF0000264
:1054700005F1010504E003DA4FF00002A5F1010592
:10548000002AECD002981199C0E90231C0E9004528
:1054900079E70000000014400000F03F30000000F9
:1054A0000000F0430000E03F2DE9FF4F95B09B4620
:1054B0008946064600250FE2252877D10024274695
:1054C000F84A0121059400E0044316F8013F203B0F
:1054D00001FA03F01042F7D130782A2811D06FF08A
:1054E0002F033078A0F13002092A16D8059A44F02B
:1054F000020402EB820203EB42021044761C059088
:10550000EFE759F8042B0592002A03DA504244F4DD
:105510000054059044F00204761C30782E2816D1F1
:1055200016F8010F44F004042A280DD06FF02F0262
:105530003078A0F13003092B09D807EB870302EB81
:105540004303C718761CF3E759F8047B761C3078C0
:105550006C280FD006DC4C2817D068280DD06A289C
:1055600014D104E0742810D07A280FD10DE044F44F
:1055700000140AE044F4801401E044F4401472780A
:10558000824202D104F58014761C761C307866289D
:105590000BD013DC582877D009DC002875D04528BB
:1055A000F6D04628F4D047281AD19DE118E06328A8
:1055B00035D0642879D0652812D195E1702873D050
:1055C00008DC6728F1D069286FD06E280DD06F28CD
:1055D00006D1B5E073282CD0752875D0782874D002
:1055E0005A46179990476D1C75E1C4F30250022882
:1055F00009D003280DD0D9F8001004280DD00D6073
:1056000009F1040967E1D9F80010EA17C1E900526D
:10561000F6E7D9F800100D80F2E70D70F0E719F801
:10562000041B8DF8001000208DF80100EA460120CF
:1056300003E059F804AB4FF0FF3061074FF0000171
:1056400002D40DE008F101018846B9420FDA804525
:10565000F8DB1AF808100029F4D108E008F101017C
:1056600088468142FADB1AF808100029F6D105981D
:105670005B46A0EB080721463846179A00F094FADB
:10568000284400EB080507E04DE029E10DE01AF899
:10569000010B5A4617999047B8F10108F7D25B46BB
:1056A00021463846179A13E142E00A220092C4F3D9
:1056B00002524FF0000A022A08D059F804CB032AFC
:1056C0004FEAEC710AD00DE029E02AE009F1070168
:1056D00021F00702F2E802C1914609E00FFA8CFCC2
:1056E0004FEAEC71042A03D14FFA8CFC4FEAEC71BB
:1056F000002907DA0A460021DCF1000C61EB020107
:105700002D2202E0220504D52B228DF8042001224F
:1057100003E0E20701D02022F7E7904659E00A2192
:1057200002E010220DE010214FF0000A00910BE082
:1057300010224FF0000A44F004040827009203E00E
:1057400008224FF0000A0092C4F30252022A05D048
:1057500059F804CB0021032A08D009E009F1070118
:1057600021F00702F2E802C1914605E01FFA8CFC25
:10577000042A01D10CF0FF0C4FF00008220728D5B5
:10578000702806D0009B83F0100353EA0A0305D06B
:105790000EE040228DF80420012208E05CEA0102BC
:1057A00006D030228DF804208DF8050002229046A4
:1057B000009B83F0080353EA0A030AD15CEA010262
:1057C00001D1620705D530228DF804204FF0010881
:1057D0007F1E582804D034A003900EA802900DE03C
:1057E00036A0F9E753466046009AFBF723F8844653
:1057F0000398825C0298401E029002705CEA0100ED
:10580000F0D1029806A9081A00F1200A600702D513
:1058100024F4803400E00127574502DDA7EB0A009D
:1058200000E0002000EB0A01009005984144401A76
:105830000590E00306D45B462146179A059800F0D0
:10584000B3F90544002706E001A85A46C05D179940
:1058500090476D1C7F1C4745F6DBE0030CD55B468B
:105860002146179A059800F09FF9054404E030207E
:105870005A46179990476D1C0099481E00900029C0
:10588000F5DC08E0029802995A460078491C02911A
:10589000179990476D1CBAF10001AAF1010AF1DCD9
:1058A00065E10000092801003031323334353637E4
:1058B000383961626364656600000000303132335C
:1058C00034353637383941424344454600000000FC
:1058D00000F058F90544761C307800287FF4ECADD0
:1058E00019B02846BDE8F08F620700D4062709F1F9
:1058F000070222F0070CFCE80223E14603F000480F
:105900005FEA080C02D00FF2702C0DE05FEA045C35
:1059100002D50FF2682C07E05FEAC47C02D00FF2D8
:10592000602C01E0AFF2700C4FF0FF3823F0004321
:10593000CDF850C065280CD006DC452809D0462893
:105940001DD047283DD13DE0662818D067287ED17C
:1059500038E00021112F01DB112000E0781CCDE997
:10596000000106A90EA8FFF7DDFCDDE90F010E9A84
:1059700003910021009207F1010A04914DE04FF0DC
:1059800000400097CDE9011006A90EA8FFF7CAFC58
:10599000DDE90F0203920E9B11990022DDF80CA0A5
:1059A0000093049211B9791C00EB010AB7EB0A00CD
:1059B00004D4C0F1FF3007F1010A0490AAEB0700FC
:1059C000019044E0012F00DA01270021112F01DDB1
:1059D000112000E03846CDE9000106A90EA8FFF726
:1059E000A1FCDDE90F010E9A0391002104910092C0
:1059F000BA4621070CD40399514500DA8A46BAF118
:105A0000010F05DD009AAAF10101515C302908D08F
:105A1000B84202DA10F1040F06DA0121CDE90110D3
:105A200015E0AAF10101E9E7002805DC0499014429
:105A30000491AAEB000102E0411C514500DD8A46B9
:105A40000499401A401C01904FF00040029020073A
:105A500004D40198504501DBCDF8048000208DF876
:105A60004F0002980DF14F07B0F1004F25D02B20C9
:105A70000E9002984FF0020800280CDA4042029083
:105A80002D200E9007E00A210298FAF7BDFE303172
:105A9000029007F8011DB8F10001A8F10108F2DC3D
:105AA00002980028EFD1791E0E980870307800F027
:105AB000200040F0450007F8020D12A8C01B00F1BD
:105AC00007081498007800B1012000EB0A01019842
:105AD00001EBE07105984144401A401E0590E00337
